:100000000EC028C04AC026C025C024C023C022C0BC
:1000100021C020C01FC01EC01DC01CC01BC0112499
:100020001FBECFE5D1E0DEBFCDBF10E0A0E6B0E05F
:10003000ECE3F2E002C005900D92A036B107D9F7CB
:1000400010E0A0E6B0E001C01D92A93EB107E1F7C3
:10005000DED0F2C0D5CF20E09091E4008091E500A1
:10006000981709F421E0822F0895AC018091E400F3
:10007000E82FF0E031969F012F7330703197809117
:10008000E500821749F02093E400EE0FFF1FEC59C2
:10009000FF4F518340830895FFCF1F920F920FB6F9
:1000A0000F9211242F933F934F935F936F937F93FE
:1000B0008F939F93AF93BF93EF93FF9388B391E098
:1000C000892788BB42B726B32071209363008091B3
:1000D0006200342F381B832F85508D3020F0109212
:1000E0006100109260008091600090916100009723
:1000F00011F03B30E8F040936200880F991F909315
:10010000610080936000222329F481609093610054
:1001100080936000809160009091610095FF08C01D
:100120009093E7008093E6001092610010926000C7
:100130008091E40090E001968F7390702091E5002B
:10014000281721F481E08093E80003C0842F90E019
:100150008CDFFF91EF91BF91AF919F918F917F9134
:100160006F915F914F913F912F910F900FBE0F9024
:100170001F9018952091E5008091E400821779F096
:1001800030E0F901EE0FFF1FEC59FF4F80819181A4
:100190002F5F3F4F2F7330702093E5000895FFCFFE
:1001A0001092E7001092E6001092E4001092E50031
:1001B0001092E80085E083BF8BB780628BBF80E13F
:1001C00085BB0895C09828E833E148EC50E0FA0177
:1001D0003197F1F721503040D1F714C0C09A20ED8B
:1001E00037E0FA013197F1F721503040D1F7C0984C
:1001F00028E833E1FA013197F1F721503040D1F787
:10020000815002C048EC50E0882341F70895C8DFD0
:100210007894B89AC09A8091E6009091E700892B73
:10022000D1F38091E6009091E7008F73CBDF1092BD
:0C023000E7001092E600EFCFF894FFCF3B
:00000001FF
